{"abi":[{"type":"function","name":"VERSION","inputs":[],"outputs":[{"name":"","type":"uint256","internalType":"uint256"}],"stateMutability":"view"},{"type":"function","name":"execute","inputs":[{"name":"rfqId","type":"bytes32","internalType":"bytes32"},{"name":"creator","type":"address","internalType":"address"},{"name":"baseToken","type":"address","internalType":"address"},{"name":"quoteToken","type":"address","internalType":"address"},{"name":"baseAmount","type":"uint256","internalType":"uint256"},{"name":"quoteAmount","type":"uint256","internalType":"uint256"}],"outputs":[],"stateMutability":"nonpayable"},{"type":"function","name":"executeAsync","inputs":[],"outputs":[],"stateMutability":"pure"},{"type":"function","name":"executePartialFill","inputs":[],"outputs":[],"stateMutability":"pure"},{"type":"event","name":"TradeExecuted","inputs":[{"name":"rfqId","type":"bytes32","indexed":true,"internalType":"bytes32"},{"name":"creator","type":"address","indexed":true,"internalType":"address"},{"name":"acceptor","type":"address","indexed":true,"internalType":"address"},{"name":"baseToken","type":"address","indexed":false,"internalType":"address"},{"name":"quoteToken","type":"address","indexed":false,"internalType":"address"},{"name":"baseAmount","type":"uint256","indexed":false,"internalType":"uint256"},{"name":"quoteAmount","type":"uint256","indexed":false,"internalType":"uint256"}],"anonymous":false},{"type":"error","name":"SafeERC20FailedOperation","inputs":[{"name":"token","type":"address","internalType":"address"}]}],"bytecode":{"object":"0x608060405234801561000f575f80fd5b506103ae8061001d5f395ff3fe608060405234801561000f575f80fd5b506004361061004a575f3560e01c80638028f3bf1461004e578063941df6771461004e578063c85bcd1814610058578063ffa1ad741461006b575b5f80fd5b610056610085565b005b61005661006636600461031d565b6100c4565b610073600181565b60405190815260200160405180910390f35b60405162461bcd60e51b815260206004820152600f60248201526e139bdd081a5b5c1b195b595b9d1959608a1b60448201526064015b60405180910390fd5b6001600160a01b038416158015906100e457506001600160a01b03831615155b6101285760405162461bcd60e51b8152602060048201526015602482015274496e76616c696420746f6b656e206164647265737360581b60448201526064016100bb565b5f8211801561013657505f81115b6101735760405162461bcd60e51b815260206004820152600e60248201526d125b9d985b1a5908185b5bdd5b9d60921b60448201526064016100bb565b6001600160a01b0385166101c95760405162461bcd60e51b815260206004820152601760248201527f496e76616c69642063726561746f72206164647265737300000000000000000060448201526064016100bb565b336101df6001600160a01b038616878386610259565b6101f46001600160a01b038516828885610259565b604080516001600160a01b0387811682528681166020830152918101859052606081018490528183169188169089907f83cad772ac2b0db95ad2de681f284a78e3a06dadf88d1253b137de40eb0b814d9060800160405180910390a450505050505050565b610267848484846001610295565b61028f57604051635274afe760e01b81526001600160a01b03851660048201526024016100bb565b50505050565b6040516323b872dd60e01b5f8181526001600160a01b038781166004528616602452604485905291602083606481808c5af1925060015f511483166102f15783831516156102e5573d5f823e3d81fd5b5f883b113d1516831692505b604052505f60605295945050505050565b80356001600160a01b0381168114610318575f80fd5b919050565b5f805f805f8060c08789031215610332575f80fd5b8635955061034260208801610302565b945061035060408801610302565b935061035e60608801610302565b92506080870135915060a08701359050929550929550929556fea26469706673582212204c719cf7f5ccaaac5668bc7ee65a955206f4e5d5caddf9e66285e5aed6ed687064736f6c63430008180033","linkReferences":{}},"methodIdentifiers":{"VERSION()":"ffa1ad74","execute(bytes32,address,address,address,uint256,uint256)":"c85bcd18","executeAsync()":"8028f3bf","executePartialFill()":"941df677"},"id":29}